:020000040000FA
:100000000C9462000C948A000C948A000C948A0070
:100010000C948A000C948A000C948A000C948A0038
:100020000C948A000C948A000C948A000C948A0028
:100030000C948A000C948A000C948A000C948A0018
:100040000C94DC020C948A000C944C030C94260350
:100050000C948A000C948A000C948A000C948A00F8
:100060000C948A000C948A000000000024002700F1
:100070002A0000000000250028002B0000000000DE
:1000800023002600290004040404040404040202DA
:100090000202020203030303030301020408102007
:1000A0004080010204081020010204081020000012
:1000B0000008000201000003040700000000000027
:1000C0000000A50511241FBECFEFD8E0DEBFCDBFD5
:1000D00011E0A0E0B1E0EAE1F0E102C005900D928C
:1000E000A232B107D9F721E0A2E2B1E001C01D922E
:1000F000A43DB207E1F710E0C2E6D0E004C02197CA
:10010000FE010E940508C136D107C9F70E947E038F
:100110000C940B080C940000AF92BF92CF92DF9228
:10012000EF92FF920F931F93CF93DF936C017B01AC
:100130008B01040F151FEB015E01AE18BF08C0173D
:10014000D10759F06991D601ED91FC910190F081B0
:10015000E02DC6010995892B79F7C501DF91CF9173
:100160001F910F91FF90EF90DF90CF90BF90AF90D5
:100170000895FC01538D448D252F30E0842F90E0AD
:10018000821B930B541710F0CF9608950197089592
:10019000FC01918D828D981761F0A28DAE0FBF2F5B
:1001A000B11D5D968C91928D9F5F9F73928F90E0B1
:1001B00008958FEF9FEF0895FC01918D828D981720
:1001C00031F0828DE80FF11D858D90E008958FEF5D
:1001D0009FEF0895FC01918D228D892F90E0805C26
:1001E0009F4F821B91098F739927089587E391E0B0
:1001F0000E94EA0021E0892B09F420E0822F089573
:1002000080E090E0892B29F00E94F60081110C9487
:1002100000000895FC01A48DA80FB92FB11DA35AA9
:10022000BF4F2C91848D90E001968F739927848F16
:10023000A689B7892C93A089B1898C918370806439
:100240008C93938D848D981306C00288F389E02DDA
:1002500080818F7D80830895EF92FF920F931F938B
:10026000CF93DF93EC0181E0888F9B8D8C8D981369
:100270001AC0E889F989808185FF15C09FB7F89475
:10028000EE89FF896083E889F989808183708064C1
:1002900080839FBF81E090E0DF91CF911F910F910C
:1002A000FF90EF900895F62E0B8D10E00F5F1F4F1B
:1002B0000F731127E02E8C8D8E110CC00FB607FC2A
:1002C000FACFE889F989808185FFF5CFCE010E94B8
:1002D0000A01F1CFEB8DEC0FFD2FF11DE35AFF4F1B
:1002E000F0829FB7F8940B8FEA89FB898081806246
:1002F000CFCFCF93DF93EC01888D8823B9F0AA8903
:10030000BB89E889F9898C9185FD03C0808186FDD0
:100310000DC00FB607FCF7CF8C9185FFF2CF80811F
:1003200085FFEDCFCE010E940A01E9CFDF91CF9189
:100330000895833081F028F4813099F08230A9F05B
:1003400008958730A9F08830C9F08430B1F48091E5
:1003500080008F7D03C0809180008F778093800024
:10036000089584B58F7784BD089584B58F7DFBCFC4
:100370008091B0008F778093B00008958091B00095
:100380008F7DF9CF1F93CF93DF93282F30E0F901B2
:10039000E255FF4F8491F901E656FF4FD491F901E0
:1003A000EA57FF4FC491CC23A9F0162F81110E9468
:1003B0009901EC2FF0E0EE0FFF1FEE58FF4FA591D3
:1003C000B4918FB7F894EC91111108C0D095DE2349
:1003D000DC938FBFDF91CF911F910895DE2BF8CF73
:1003E000CF93DF9390E0FC01E656FF4F24918A57AC
:1003F0009F4FFC0184918823D1F090E0880F991FD2
:10040000FC01E859FF4FA591B491FC01EE58FF4F54
:10041000C591D49161110EC09FB7F8948C91E22FD1
:10042000E0958E238C932881E223E8839FBFDF91A0
:10043000CF9108958FB7F894EC91E22BEC938FBF96
:10044000F6CFCF93DF93EC0161E089E00E94F001E9
:10045000209731F460E089E0DF91CF910C94C201E4
:10046000CF3FD10511F461E0F6CFE7EBF0E0E49186
:10047000E33029F140F4E130B1F0E230D9F0C03896
:10048000D1058CF7E7CFE73021F1E83051F1E430C6
:10049000B1F780918000806280938000D0938B00C0
:1004A000C0938A0004C084B5806884BDC7BDDF9155
:1004B000CF91089584B5806284BDC8BDF8CF809186
:1004C0008000806880938000D0938900C09388006A
:1004D000EECF8091B00080688093B000C093B300ED
:1004E000E6CF8091B00080628093B000C093B400EA
:1004F000DECF8E50806480937C0080917A0080648F
:1005000080937A0080917A0086FDFCCF80917800FC
:10051000909179000895FC0101900020E9F731974E
:10052000AF01481B590BBC0187E391E00C948C0090
:100530008F929F92AF92BF920F931F93CF93DF93AF
:10054000CDB7DEB7A1970FB6F894DEBF0FBECDBF13
:1005500019A2423008F44AE08E010F5D1F4F842E2D
:10056000912CB12CA12CA50194010E94FC05E62F31
:10057000B901CA01EA30F4F4E05DD801EE938D01CF
:10058000232B242B252B79F790E080E0109719F08E
:10059000CD010E948B02A1960FB6F894DEBF0FBE6C
:1005A000CDBFDF91CF911F910F91BF90AF909F90E2
:1005B0008F900895E95CE1CF1F920F920FB60F92D2
:1005C00011242F933F938F939F93AF93BF93809169
:1005D000330190913401A0913501B09136013091F1
:1005E000320123E0230F2D3758F50196A11DB11DCF
:1005F000209332018093330190933401A09335010D
:10060000B093360180912E0190912F01A09130017D
:10061000B09131010196A11DB11D80932E019093DF
:100620002F01A0933001B0933101BF91AF919F9101
:100630008F913F912F910F900FBE0F901F901895A3
:1006400026E8230F0296A11DB11DD2CF1F920F9253
:100650000FB60F9211242F933F934F935F936F9395
:100660007F938F939F93AF93BF93EF93FF9387E312
:1006700091E00E940A01FF91EF91BF91AF919F918C
:100680008F917F916F915F914F913F912F910F903B
:100690000FBE0F901F9018951F920F920FB60F92DA
:1006A00011242F938F939F93EF93FF93E091470132
:1006B000F09148018081E0914D01F0914E0182FD61
:1006C0001BC09081809150018F5F8F7320915101E9
:1006D000821741F0E0915001F0E0E95CFE4F958F08
:1006E00080935001FF91EF919F918F912F910F90E7
:1006F0000FBE0F901F9018958081F4CFCF93DF939A
:1007000000D000D0CDB7DEB7789484B5826084BDC8
:1007100084B5816084BD85B5826085BD85B5816005
:1007200085BD80916E00816080936E001092810083
:10073000809181008260809381008091810081603E
:1007400080938100809180008160809380008091FF
:10075000B10084608093B1008091B000816080938B
:10076000B00080917A00846080937A0080917A0052
:10077000826080937A0080917A00816080937A0011
:1007800080917A00806880937A001092C100E09195
:100790004701F091480182E08083E0914301F091AC
:1007A00044011082E0914501F091460188E0808388
:1007B00010924F01E0914B01F0914C0186E0808353
:1007C000E0914901F0914A01808180618083E0914C
:1007D0004901F0914A01808188608083E09149015C
:1007E000F0914A01808180688083E0914901F09115
:1007F0004A0180818F7D808360E088E00E94F00163
:1008000061E08DE00E94F00161E089E00E94F0016A
:1008100090E080E00E94210292EA292E90E0392E99
:100820000EE810E0E6EBF0E08491F101E490F801CD
:10083000F490FF2009F4C8C081110E949901EF2DA6
:10084000F0E0EE0FFF1FE458FF4FA591B4918C919B
:10085000E82209F4B9C061E08DE00E94C2018FE096
:100860000E9479026C018EE00E9479027C0128EEE0
:1008700033E0D6010E94FE0720E034E040E050E083
:100880000E94D205490128EE33E0D7010E94FE07FD
:1008900020E034E040E050E00E94D205821A930A42
:1008A000B40190E080E00E94D50669837A838B834F
:1008B0009C8329E937ED48EF5FE30E948C076B01C9
:1008C0007C0123EC34E64AE250E460912A01709105
:1008D0002B0180912C0190912D010E948C079B018E
:1008E000AC01C701B6010E942D066B017C0126E810
:1008F00039EC44E55FE36091260170912701809116
:100900002801909129010E948C079B01AC01C7012D
:10091000B6010E942E062AE534E64FE050E40E941C
:100920008C072091220130912301409124015091A4
:1009300025010E942E066B017C01AC019B010E94E7
:10094000F907882309F46FC085E191E00E948B02CA
:1009500082E191E00E948B0280912A0190912B010B
:10096000A0912C01B0912D01809326019093270135
:10097000A0932801B093290189819A81AB81BC8120
:1009800080932A0190932B01A0932C01B0932D0109
:10099000C0922201D0922301E0922401F09225011D
:1009A000C701B6010E949F069B01AC01AFEFB0E00A
:1009B0000E94F10528EE33E040E050E00E94D205AD
:1009C000C9010E94210222C060E08DE00E94C201A4
:1009D00080E10E9479022FEF30E0DC010E94FE07E7
:1009E0002FEF33E040E050E00E94D20569017A0128
:1009F000C9010E942102C701B601882799274AE050
:100A00000E94980282E191E00E948B02A0E0B0E097
:100A1000AB2B09F407CF0E94F600882309F402CF1C
:100A20000E940000FFCE46015701E894B7F82FEF6F
:100A30003FEF4FE75FE7C501B4010E94F90781115D
:100A40000DC02FEF3FEF4FE75FE7C501B4010E94F4
:100A50009A0618161CF489E191E078CF2FEF3FEF4A
:100A60004FE75FE4C701B6010E94870718161CF420
:100A70008DE191E06BCF2FEF3FEF4FE75FECC701C8
:100A8000B6010E949A0687FDF3CF20E030E0A9016D
:100A9000C701B6010E949A0687FF54C06DE287E342
:100AA00091E00E942C01C701B60190582AE037ED71
:100AB00043EA5BE30E942E062B013C010E94A6063E
:100AC0004B015C010E94D5069B01AC01C301B20140
:100AD0000E942D062B013C014AE0C501B4010E9491
:100AE00098026EE287E391E00E942C0120E030E062
:100AF00040E251E4C301B2010E948C072B013C018A
:100B00000E94A6064B01B12CA12C4AE0C501B401FC
:100B10000E949802C501B4010E94D5069B01AC0158
:100B2000C301B2010E942D0620E030E040E251E412
:100B30000E948C070E94A60690E080E04AE00E9496
:100B4000980206CFC701B601B1CFE7E3F1E0138207
:100B5000128288EE93E0A0E0B0E084839583A683C0
:100B6000B78384E091E09183808385EC90E0958762
:100B7000848784EC90E09787868780EC90E0918B67
:100B8000808B81EC90E0938B828B82EC90E0958B54
:100B9000848B86EC90E0978B868B118E128E138E51
:100BA000148E0895052E97FB1EF400940E94E9050B
:100BB00057FD07D00E94FC0507FC03D04EF40C94AF
:100BC000E90550954095309521953F4F4F4F5F4F28
:100BD000089590958095709561957F4F8F4F9F4FA9
:100BE00008950E941E06A59F900DB49F900DA49F8E
:100BF000800D911D11240895A1E21A2EAA1BBB1B82
:100C0000FD010DC0AA1FBB1FEE1FFF1FA217B307D8
:100C1000E407F50720F0A21BB30BE40BF50B661FEE
:100C2000771F881F991F1A9469F7609570958095B2
:100C300090959B01AC01BD01CF010895A29FB00129
:100C4000B39FC001A39F700D811D1124911DB29F00
:100C5000700D811D1124911D08955058BB27AA279E
:100C60000E9445060C944D070E943F0738F00E94F1
:100C7000460720F039F49F3F19F426F40C943C0702
:100C80000EF4E095E7FB0C943607E92F0E945E070F
:100C900058F3BA17620773078407950720F079F4B1
:100CA000A6F50C9480070EF4E0950B2EBA2FA02D1C
:100CB0000B01B90190010C01CA01A0011124FF2709
:100CC000591B99F0593F50F4503E68F11A16F04004
:100CD000A22F232F342F4427585FF3CF4695379503
:100CE0002795A795F0405395C9F77EF41F16BA0BC8
:100CF000620B730B840BBAF09150A1F0FF0FBB1F76
:100D0000661F771F881FC2F70EC0BA0F621F731FBE
:100D1000841F48F4879577956795B795F7959E3F1B
:100D200008F0B0CF9395880F08F09927EE0F9795AC
:100D3000879508950E94120708F481E008950E94A3
:100D4000A6066894B1110C94810708950E94660765
:100D500088F09F5798F0B92F9927B751B0F0E1F07C
:100D6000660F771F881F991F1AF0BA95C9F714C02C
:100D7000B13091F00E948007B1E008950C94800793
:100D8000672F782F8827B85F39F0B93FCCF3869565
:100D900077956795B395D9F73EF4909580957095C2
:100DA00061957F4F8F4F9F4F0895E89409C097FB3F
:100DB0003EF490958095709561957F4F8F4F9F4F32
:100DC0009923A9F0F92F96E9BB279395F695879576
:100DD00077956795B795F111F8CFFAF4BB0F11F439
:100DE00060FF1BC06F5F7F4F8F4F9F4F16C08823E0
:100DF00011F096E911C0772321F09EE8872F762F16
:100E000005C0662371F096E8862F70E060E02AF056
:100E10009A95660F771F881FDAF7880F9695879542
:100E200097F90895990F0008550FAA0BE0E8FEEF17
:100E300016161706E807F907C0F012161306E4079E
:100E4000F50798F0621B730B840B950B39F40A2697
:100E500061F0232B242B252B21F408950A2609F475
:100E6000A140A6958FEF811D811D089597F99F6779
:100E700080E870E060E008959FEF80EC0895002422
:100E80000A941616170618060906089500240A94EF
:100E900012161306140605060895092E0394000C75
:100EA00011F4882352F0BB0F40F4BF2B11F460FF04
:100EB00004C06F5F7F4F8F4F9F4F089557FD90582D
:100EC000440F551F59F05F3F71F04795880F97FB0E
:100ED000991F61F09F3F79F08795089512161306C8
:100EE0001406551FF2CF4695F1DF08C016161706F7
:100EF0001806991FF1CF869571056105089408952C
:100F0000E894BB2766277727CB0197F908950E94BD
:100F1000120708F48FEF08950E949F070C944D0765
:100F20000E943F0738F00E94460720F0952311F0F9
:100F30000C9436070C943C0711240C9481070E94F2
:100F40005E0770F3959FC1F3950F50E0551F629FA8
:100F5000F001729FBB27F00DB11D639FAA27F00D12
:100F6000B11DAA1F649F6627B00DA11D661F829F39
:100F70002227B00DA11D621F739FB00DA11D621F1E
:100F8000839FA00D611D221F749F3327A00D611D3B
:100F9000231F849F600D211D822F762F6A2F11241D
:100FA0009F5750409AF0F1F088234AF0EE0FFF1F50
:100FB000BB1F661F771F881F91505040A9F79E3FA7
:100FC000510580F00C9436070C9481075F3FE4F3E1
:100FD000983ED4F3869577956795B795F795E795FD
:100FE0009F5FC1F7FE2B880F911D9695879597F906
:100FF00008950E941207880B990B08950E941E06FF
:10100000B7FF0895821B930B0895EE0FFF1F059005
:10101000F491E02D0994F894FFCF000000002C011A
:101020008C00B9007901EA00C800DC000D0A006EEE
:0C103000616E00696E66006F766600005D
:107E0000112484B714BE81FFF0D085E080938100F7
:107E100082E08093C00088E18093C10086E0809377
:107E2000C20080E18093C4008EE0C9D0259A86E02C
:107E300020E33CEF91E0309385002093840096BBD3
:107E4000B09BFECF1D9AA8958150A9F7CC24DD24C4
:107E500088248394B5E0AB2EA1E19A2EF3E0BF2EE7
:107E6000A2D0813461F49FD0082FAFD0023811F036
:107E7000013811F484E001C083E08DD089C08234E0
:107E800011F484E103C0853419F485E0A6D080C0E4
:107E9000853579F488D0E82EFF2485D0082F10E0AE
:107EA000102F00270E291F29000F111F8ED06801E7
:107EB0006FC0863521F484E090D080E0DECF843638
:107EC00009F040C070D06FD0082F6DD080E0C81688
:107ED00080E7D80618F4F601B7BEE895C0E0D1E017
:107EE00062D089930C17E1F7F0E0CF16F0E7DF06D8
:107EF00018F0F601B7BEE89568D007B600FCFDCFD4
:107F0000A601A0E0B1E02C9130E011968C91119780
:107F100090E0982F8827822B932B1296FA010C0160
:107F200087BEE89511244E5F5F4FF1E0A038BF0790
:107F300051F7F601A7BEE89507B600FCFDCF97BE46
:107F4000E89526C08437B1F42ED02DD0F82E2BD052
:107F50003CD0F601EF2C8F010F5F1F4F84911BD097
:107F6000EA94F801C1F70894C11CD11CFA94CF0C13
:107F7000D11C0EC0853739F428D08EE10CD085E9AC
:107F80000AD08FE07ACF813511F488E018D01DD067
:107F900080E101D065CF982F8091C00085FFFCCF94
:107FA0009093C60008958091C00087FFFCCF809118
:107FB000C00084FD01C0A8958091C6000895E0E648
:107FC000F0E098E1908380830895EDDF803219F02E
:107FD00088E0F5DFFFCF84E1DECF1F93182FE3DFCA
:107FE0001150E9F7F2DF1F91089580E0E8DFEE27F6
:047FF000FF270994CA
:027FFE00040479
:00000001FF
