:100000000C9462000C948A000C948A000C948A0070
:100010000C948A000C948A000C948A000C948A0038
:100020000C948A000C948A000C948A000C948A0028
:100030000C948A000C948A000C948A000C948A0018
:100040000C94DC020C948A000C944C030C94260350
:100050000C948A000C948A000C948A000C948A00F8
:100060000C948A000C948A000000000024002700F1
:100070002A0000000000250028002B0000000000DE
:1000800023002600290004040404040404040202DA
:100090000202020203030303030301020408102007
:1000A0004080010204081020010204081020000012
:1000B0000008000201000003040700000000000027
:1000C0000000C40511241FBECFEFD8E0DEBFCDBFB6
:1000D00011E0A0E0B1E0E8E5F0E102C005900D928A
:1000E000A232B107D9F721E0A2E2B1E001C01D922E
:1000F000A43DB207E1F710E0C2E6D0E004C02197CA
:10010000FE010E942408C136D107C9F70E947E0370
:100110000C942A080C940000AF92BF92CF92DF9209
:10012000EF92FF920F931F93CF93DF936C017B01AC
:100130008B01040F151FEB015E01AE18BF08C0173D
:10014000D10759F06991D601ED91FC910190F081B0
:10015000E02DC6010995892B79F7C501DF91CF9173
:100160001F910F91FF90EF90DF90CF90BF90AF90D5
:100170000895FC01538D448D252F30E0842F90E0AD
:10018000821B930B541710F0CF9608950197089592
:10019000FC01918D828D981761F0A28DAE0FBF2F5B
:1001A000B11D5D968C91928D9F5F9F73928F90E0B1
:1001B00008958FEF9FEF0895FC01918D828D981720
:1001C00031F0828DE80FF11D858D90E008958FEF5D
:1001D0009FEF0895FC01918D228D892F90E0805C26
:1001E0009F4F821B91098F739927089587E391E0B0
:1001F0000E94EA0021E0892B09F420E0822F089573
:1002000080E090E0892B29F00E94F60081110C9487
:1002100000000895FC01A48DA80FB92FB11DA35AA9
:10022000BF4F2C91848D90E001968F739927848F16
:10023000A689B7892C93A089B1898C918370806439
:100240008C93938D848D981306C00288F389E02DDA
:1002500080818F7D80830895EF92FF920F931F938B
:10026000CF93DF93EC0181E0888F9B8D8C8D981369
:100270001AC0E889F989808185FF15C09FB7F89475
:10028000EE89FF896083E889F989808183708064C1
:1002900080839FBF81E090E0DF91CF911F910F910C
:1002A000FF90EF900895F62E0B8D10E00F5F1F4F1B
:1002B0000F731127E02E8C8D8E110CC00FB607FC2A
:1002C000FACFE889F989808185FFF5CFCE010E94B8
:1002D0000A01F1CFEB8DEC0FFD2FF11DE35AFF4F1B
:1002E000F0829FB7F8940B8FEA89FB898081806246
:1002F000CFCFCF93DF93EC01888D8823B9F0AA8903
:10030000BB89E889F9898C9185FD03C0808186FDD0
:100310000DC00FB607FCF7CF8C9185FFF2CF80811F
:1003200085FFEDCFCE010E940A01E9CFDF91CF9189
:100330000895833081F028F4813099F08230A9F05B
:1003400008958730A9F08830C9F08430B1F48091E5
:1003500080008F7D03C0809180008F778093800024
:10036000089584B58F7784BD089584B58F7DFBCFC4
:100370008091B0008F778093B00008958091B00095
:100380008F7DF9CF1F93CF93DF93282F30E0F901B2
:10039000E255FF4F8491F901E656FF4FD491F901E0
:1003A000EA57FF4FC491CC23A9F0162F81110E9468
:1003B0009901EC2FF0E0EE0FFF1FEE58FF4FA591D3
:1003C000B4918FB7F894EC91111108C0D095DE2349
:1003D000DC938FBFDF91CF911F910895DE2BF8CF73
:1003E000CF93DF9390E0FC01E656FF4F24918A57AC
:1003F0009F4FFC0184918823D1F090E0880F991FD2
:10040000FC01E859FF4FA591B491FC01EE58FF4F54
:10041000C591D49161110EC09FB7F8948C91E22FD1
:10042000E0958E238C932881E223E8839FBFDF91A0
:10043000CF9108958FB7F894EC91E22BEC938FBF96
:10044000F6CFCF93DF93EC0161E089E00E94F001E9
:10045000209731F460E089E0DF91CF910C94C201E4
:10046000CF3FD10511F461E0F6CFE7EBF0E0E49186
:10047000E33029F140F4E130B1F0E230D9F0C03896
:10048000D1058CF7E7CFE73021F1E83051F1E430C6
:10049000B1F780918000806280938000D0938B00C0
:1004A000C0938A0004C084B5806884BDC7BDDF9155
:1004B000CF91089584B5806284BDC8BDF8CF809186
:1004C0008000806880938000D0938900C09388006A
:1004D000EECF8091B00080688093B000C093B300ED
:1004E000E6CF8091B00080628093B000C093B400EA
:1004F000DECF8E50806480937C0080917A0080648F
:1005000080937A0080917A0086FDFCCF80917800FC
:10051000909179000895FC0101900020E9F731974E
:10052000AF01481B590BBC0187E391E00C948C0090
:100530008F929F92AF92BF920F931F93CF93DF93AF
:10054000CDB7DEB7A1970FB6F894DEBF0FBECDBF13
:1005500019A2423008F44AE08E010F5D1F4F842E2D
:10056000912CB12CA12CA50194010E941B06E62F11
:10057000B901CA01EA30F4F4E05DD801EE938D01CF
:10058000232B242B252B79F790E080E0109719F08E
:10059000CD010E948B02A1960FB6F894DEBF0FBE6C
:1005A000CDBFDF91CF911F910F91BF90AF909F90E2
:1005B0008F900895E95CE1CF1F920F920FB60F92D2
:1005C00011242F933F938F939F93AF93BF93809169
:1005D000330190913401A0913501B09136013091F1
:1005E000320123E0230F2D3758F50196A11DB11DCF
:1005F000209332018093330190933401A09335010D
:10060000B093360180912E0190912F01A09130017D
:10061000B09131010196A11DB11D80932E019093DF
:100620002F01A0933001B0933101BF91AF919F9101
:100630008F913F912F910F900FBE0F901F901895A3
:1006400026E8230F0296A11DB11DD2CF1F920F9253
:100650000FB60F9211242F933F934F935F936F9395
:100660007F938F939F93AF93BF93EF93FF9387E312
:1006700091E00E940A01FF91EF91BF91AF919F918C
:100680008F917F916F915F914F913F912F910F903B
:100690000FBE0F901F9018951F920F920FB60F92DA
:1006A00011242F938F939F93EF93FF93E091470132
:1006B000F09148018081E0914D01F0914E0182FD61
:1006C0001BC09081809150018F5F8F7320915101E9
:1006D000821741F0E0915001F0E0E95CFE4F958F08
:1006E00080935001FF91EF919F918F912F910F90E7
:1006F0000FBE0F901F9018958081F4CFCF93DF939A
:1007000000D000D0CDB7DEB7789484B5826084BDC8
:1007100084B5816084BD85B5826085BD85B5816005
:1007200085BD80916E00816080936E001092810083
:10073000809181008260809381008091810081603E
:1007400080938100809180008160809380008091FF
:10075000B10084608093B1008091B000816080938B
:10076000B00080917A00846080937A0080917A0052
:10077000826080937A0080917A00816080937A0011
:1007800080917A00806880937A001092C100E09195
:100790004701F091480182E08083E0914301F091AC
:1007A00044011082E0914501F091460188E0808388
:1007B00010924F01E0914B01F0914C0186E0808353
:1007C000E0914901F0914A01808180618083E0914C
:1007D0004901F0914A01808188608083E09149015C
:1007E000F0914A01808180688083E0914901F09115
:1007F0004A0180818F7D808360E088E00E94F00163
:1008000061E08DE00E94F00161E089E00E94F0016A
:1008100090E080E00E94210222EA222E20E0322E87
:100820000EE810E0E6EBF0E08491F101E490F801CD
:10083000F490FF2009F4ACC081110E949901EF2DC2
:10084000F0E0EE0FFF1FE458FF4FA591B4918C919B
:10085000E82209F49DC061E08DE00E94C2018FE0B2
:100860000E9479026C018EE00E9479027C0128EEE0
:1008700033E0D6010E941D0820E034E040E050E063
:100880000E94F105490128EE33E0D7010E941D08BE
:1008900020E034E040E050E00E94F105821A930A23
:1008A000B40190E080E00E94F40669837A838B8330
:1008B0009C8329E937ED48EF5FE30E94AB076B01AA
:1008C0007C0123EC34E64AE250E460912A01709105
:1008D0002B0180912C0190912D010E94AB079B016F
:1008E000AC01C701B6010E944C066B017C0126E8F1
:1008F00039EC44E55FE36091260170912701809116
:100900002801909129010E94AB079B01AC01C7010E
:10091000B6010E944D062AE534E64FE050E40E94FD
:10092000AB07209122013091230140912401509185
:1009300025010E944D066B017C0120E030E04AE772
:1009400054E40E94A60718160CF051C0C12CD12CFB
:100950008AE7E82E84E4F82E46015701E894B7F8B8
:100960002FEF3FEF4FE75FE7C501B4010E94180882
:10097000811193C02FEF3FEF4FE75FE7C501B4014F
:100980000E94B90618160CF088C089E191E043C0B6
:1009900060E08DE00E94C20180E10E9479022FEFA9
:1009A00030E0DC010E941D082FEF33E040E050E012
:1009B0000E94F10569017A01C9010E942102C70163
:1009C000B601882799274AE00E94980282E191E0C7
:1009D0000E948B02A0E0B0E0AB2B09F423CF0E9471
:1009E000F600882309F41ECF0E9400001BCF20E0F0
:1009F00030E0A901C701B6010E94B90687FD49C0D0
:100A0000A7019601C701B6010E941808882309F4BE
:100A1000A3CF85E191E00E948B0282E191E00E94E8
:100A20008B0280912A0190912B01A0912C01B09111
:100A30002D018093260190932701A0932801B09364
:100A4000290189819A81AB81BC8180932A0190938D
:100A50002B01A0932C01B0932D01C0922201D092C2
:100A60002301E0922401F0922501C701B6010E9402
:100A7000BE069B01AC01AFEFB0E00E94100628EE6D
:100A800033E040E050E00E94F105C9010E942102DC
:100A9000A1CFC12CD12C76015FCF2FEF3FEF4FE7D5
:100AA0005FE4C701B6010E94A60718161CF48DE189
:100AB00091E0B1CF2FEF3FEF4FE75FECC701B601F9
:100AC0000E94B90687FDF3CF20E030E0A901C701FD
:100AD000B6010E94B90687FF54C06DE287E391E03A
:100AE0000E942C01C701B60190582AE037ED43EA75
:100AF0005BE30E944D062B013C010E94C5064B01A1
:100B00005C010E94F4069B01AC01C301B2010E948A
:100B10004C062B013C014AE0C501B4010E94980239
:100B20006EE287E391E00E942C0120E030E040E299
:100B300051E4C301B2010E94AB072B013C010E94AA
:100B4000C5064B01B12CA12C4AE0C501B4010E949D
:100B50009802C501B4010E94F4069B01AC01C301D7
:100B6000B2010E944C0620E030E040E251E40E94D5
:100B7000AB070E94C50690E080E04AE00E94980220
:100B80004CCFC701B601B1CFE7E3F1E01382128287
:100B900088EE93E0A0E0B0E084839583A683B783DA
:100BA00084E091E09183808385EC90E09587848751
:100BB00084EC90E09787868780EC90E0918B808B27
:100BC00081EC90E0938B828B82EC90E0958B848B10
:100BD00086EC90E0978B868B118E128E138E148E7E
:100BE0000895052E97FB1EF400940E94080657FDF9
:100BF00007D00E941B0607FC03D04EF40C94080695
:100C000050954095309521953F4F4F4F5F4F089538
:100C100090958095709561957F4F8F4F9F4F089568
:100C20000E943D06A59F900DB49F900DA49F800D3E
:100C3000911D11240895A1E21A2EAA1BBB1BFD01D0
:100C40000DC0AA1FBB1FEE1FFF1FA217B307E407AB
:100C5000F50720F0A21BB30BE40BF50B661F771F03
:100C6000881F991F1A9469F76095709580959095E3
:100C70009B01AC01BD01CF010895A29FB001B39FBC
:100C8000C001A39F700D811D1124911DB29F700D95
:100C9000811D1124911D08955058BB27AA270E9439
:100CA00064060C946C070E945E0738F00E9465078A
:100CB00020F039F49F3F19F426F40C945B070EF4EE
:100CC000E095E7FB0C945507E92F0E947D0758F348
:100CD000BA17620773078407950720F079F4A6F521
:100CE0000C949F070EF4E0950B2EBA2FA02D0B014C
:100CF000B90190010C01CA01A0011124FF27591B61
:100D000099F0593F50F4503E68F11A16F040A22F66
:100D1000232F342F4427585FF3CF469537952795D7
:100D2000A795F0405395C9F77EF41F16BA0B620BD6
:100D3000730B840BBAF09150A1F0FF0FBB1F661F1D
:100D4000771F881FC2F70EC0BA0F621F731F841F60
:100D500048F4879577956795B795F7959E3F08F086
:100D6000B0CF9395880F08F09927EE0F9795879548
:100D700008950E94310708F481E008950E94C50695
:100D80006894B1110C94A00708950E94850788F01B
:100D90009F5798F0B92F9927B751B0F0E1F0660F3F
:100DA000771F881F991F1AF0BA95C9F714C0B13080
:100DB00091F00E949F07B1E008950C949F07672F60
:100DC000782F8827B85F39F0B93FCCF386957795AF
:100DD0006795B395D9F73EF4909580957095619598
:100DE0007F4F8F4F9F4F0895E89409C097FB3EF4C3
:100DF00090958095709561957F4F8F4F9F4F992368
:100E0000A9F0F92F96E9BB279395F69587957795E5
:100E10006795B795F111F8CFFAF4BB0F11F460FFA5
:100E20001BC06F5F7F4F8F4F9F4F16C0882311F0FD
:100E300096E911C0772321F09EE8872F762F05C011
:100E4000662371F096E8862F70E060E02AF09A95AC
:100E5000660F771F881FDAF7880F9695879597F9A1
:100E60000895990F0008550FAA0BE0E8FEEF16163B
:100E70001706E807F907C0F012161306E407F5078E
:100E800098F0621B730B840B950B39F40A2661F002
:100E9000232B242B252B21F408950A2609F4A140A5
:100EA000A6958FEF811D811D089597F99F6780E8B2
:100EB00070E060E008959FEF80EC089500240A94AC
:100EC0001616170618060906089500240A94121625
:100ED0001306140605060895092E0394000C11F458
:100EE000882352F0BB0F40F4BF2B11F460FF04C005
:100EF0006F5F7F4F8F4F9F4F089557FD9058440F5E
:100F0000551F59F05F3F71F04795880F97FB991F68
:100F100061F09F3F79F08795089512161306140625
:100F2000551FF2CF4695F1DF08C0161617061806B2
:100F3000991FF1CF86957105610508940895E8948D
:100F4000BB2766277727CB0197F908950E943107C1
:100F500008F48FEF08950E94BE070C946C070E945E
:100F60005E0738F00E94650720F0952311F00C947D
:100F700055070C945B0711240C94A0070E947D0771
:100F800070F3959FC1F3950F50E0551F629FF001DC
:100F9000729FBB27F00DB11D639FAA27F00DB11DF5
:100FA000AA1F649F6627B00DA11D661F829F22277E
:100FB000B00DA11D621F739FB00DA11D621F839F05
:100FC000A00D611D221F749F3327A00D611D231FDB
:100FD000849F600D211D822F762F6A2F11249F5729
:100FE00050409AF0F1F088234AF0EE0FFF1FBB1F2C
:100FF000661F771F881F91505040A9F79E3F5105EB
:1010000080F00C9455070C94A0075F3FE4F3983EE2
:10101000D4F3869577956795B795F795E7959F5F94
:10102000C1F7FE2B880F911D9695879597F9089526
:101030000E943107880B990B08950E943D06B7FF67
:101040000895821B930B0895EE0FFF1F0590F491F6
:08105000E02D0994F894FFCF94
:10105800000000002C018C00B9007901EA00C800EA
:10106800DC000D0A006E616E00696E66006F7666C0
:02107800000076
:00000001FF
