:100000000C9462000C948A000C948A000C948A0070
:100010000C948A000C948A000C948A000C948A0038
:100020000C948A000C948A000C948A000C948A0028
:100030000C948A000C948A000C948A000C948A0018
:100040000C942E020C948A000C949E020C9478025C
:100050000C948A000C948A000C948A000C948A00F8
:100060000C948A000C948A000000000024002700F1
:100070002A0000000000250028002B0000000000DE
:1000800023002600290004040404040404040202DA
:100090000202020203030303030301020408102007
:1000A0004080010204081020010204081020000012
:1000B0000008000201000003040700000000000027
:1000C0000000330411241FBECFEFD8E0DEBFCDBF48
:1000D00011E0A0E0B1E0EEE7F9E002C005900D927A
:1000E000A032B107D9F721E0A0E2B1E001C01D9232
:1000F000A63CB207E1F710E0C2E6D0E004C02197C9
:10010000FE010E94B704C136D107C9F70E94D00290
:100110000C94BD040C940000AF92BF92CF92DF927A
:10012000EF92FF920F931F93CF93DF936C017B01AC
:100130008B01040F151FEB015E01AE18BF08C0173D
:10014000D10759F06991D601ED91FC910190F081B0
:10015000E02DC6010995892B79F7C501DF91CF9173
:100160001F910F91FF90EF90DF90CF90BF90AF90D5
:100170000895FC01538D448D252F30E0842F90E0AD
:10018000821B930B541710F0CF9608950197089592
:10019000FC01918D828D981761F0A28DAE0FBF2F5B
:1001A000B11D5D968C91928D9F5F9F73928F90E0B1
:1001B00008958FEF9FEF0895FC01918D828D981720
:1001C00031F0828DE80FF11D858D90E008958FEF5D
:1001D0009FEF0895FC01918D228D892F90E0805C26
:1001E0009F4F821B91098F739927089589E291E0AF
:1001F0000E94EA0021E0892B09F420E0822F089573
:1002000080E090E0892B29F00E94F60081110C9487
:1002100000000895FC01A48DA80FB92FB11DA35AA9
:10022000BF4F2C91848D90E001968F739927848F16
:10023000A689B7892C93A089B1898C918370806439
:100240008C93938D848D981306C00288F389E02DDA
:1002500080818F7D80830895EF92FF920F931F938B
:10026000CF93DF93EC0181E0888F9B8D8C8D981369
:100270001AC0E889F989808185FF15C09FB7F89475
:10028000EE89FF896083E889F989808183708064C1
:1002900080839FBF81E090E0DF91CF911F910F910C
:1002A000FF90EF900895F62E0B8D10E00F5F1F4F1B
:1002B0000F731127E02E8C8D8E110CC00FB607FC2A
:1002C000FACFE889F989808185FFF5CFCE010E94B8
:1002D0000A01F1CFEB8DEC0FFD2FF11DE35AFF4F1B
:1002E000F0829FB7F8940B8FEA89FB898081806246
:1002F000CFCFCF93DF93EC01888D8823B9F0AA8903
:10030000BB89E889F9898C9185FD03C0808186FDD0
:100310000DC00FB607FCF7CF8C9185FFF2CF80811F
:1003200085FFEDCFCE010E940A01E9CFDF91CF9189
:100330000895833081F028F4813099F08230A9F05B
:1003400008958730A9F08830C9F08430B1F48091E5
:1003500080008F7D03C0809180008F778093800024
:10036000089584B58F7784BD089584B58F7DFBCFC4
:100370008091B0008F778093B00008958091B00095
:100380008F7DF9CF1F93CF93DF93282F30E0F901B2
:10039000E255FF4F8491F901E656FF4FD491F901E0
:1003A000EA57FF4FC491CC23A9F0162F81110E9468
:1003B0009901EC2FF0E0EE0FFF1FEE58FF4FA591D3
:1003C000B4918FB7F894EC91111108C0D095DE2349
:1003D000DC938FBFDF91CF911F910895DE2BF8CF73
:1003E000CF93DF9390E0FC01E656FF4F24918A57AC
:1003F0009F4FFC0184918823D1F090E0880F991FD2
:10040000FC01E859FF4FA591B491FC01EE58FF4F54
:10041000C591D49161110EC09FB7F8948C91E22FD1
:10042000E0958E238C932881E223E8839FBFDF91A0
:10043000CF9108958FB7F894EC91E22BEC938FBF96
:10044000F6CFFC0101900020E9F73197AF01481B7E
:10045000590BBC0189E291E00C948C001F920F9221
:100460000FB60F9211242F933F938F939F93AF93C7
:10047000BF938091250190912601A0912701B09111
:1004800028013091240123E0230F2D3758F50196E0
:10049000A11DB11D20932401809325019093260175
:1004A000A0932701B0932801809120019091210110
:1004B000A0912201B09123010196A11DB11D80934D
:1004C000200190932101A0932201B0932301BF91B9
:1004D000AF919F918F913F912F910F900FBE0F90F1
:1004E0001F90189526E8230F0296A11DB11DD2CFAB
:1004F0001F920F920FB60F9211242F933F934F9399
:100500005F936F937F938F939F93AF93BF93EF937B
:10051000FF9389E291E00E940A01FF91EF91BF9160
:10052000AF919F918F917F916F915F914F913F918B
:100530002F910F900FBE0F901F9018951F920F9242
:100540000FB60F9211242F938F939F93EF93FF93E6
:10055000E0913901F0913A018081E0913F01F09101
:10056000400182FD1BC09081809142018F5F8F739B
:1005700020914301821741F0E0914201F0E0E75DF4
:10058000FE4F958F80934201FF91EF919F918F9144
:100590002F910F900FBE0F901F9018958081F4CF70
:1005A000CF93DF93CDB7DEB7A1970FB6F894DEBF38
:1005B0000FBECDBF789484B5826084BD84B5816060
:1005C00084BD85B5826085BD85B5816085BD80911E
:1005D0006E00816080936E00109281008091810096
:1005E000826080938100809181008160809381008E
:1005F000809180008160809380008091B100846050
:100600008093B1008091B00081608093B0008091B0
:100610007A00846080937A0080917A00826080936F
:100620007A0080917A00816080937A0080917A00CC
:10063000806880937A001092C100E0913901F091B6
:100640003A0182E08083E0913501F0913601108219
:10065000E0913701F091380188E0808310924101E8
:10066000E0913D01F0913E0186E08083E0913B0105
:10067000F0913C01808180618083E0913B01F091A9
:100680003C01808188608083E0913B01F0913C01D6
:10069000808180688083E0913B01F0913C01808102
:1006A0008F7D808360E088E00E94F00161E08DE052
:1006B0000E94F00161E089E00E94F00161E089E0C0
:1006C0000E94F00160E089E00E94C201412C94E0A8
:1006D000592E612C712C2AE0822E912CA12CB12C48
:1006E00030E0232E30E0332EE6EBF0E08491E2EAB6
:1006F000F0E00491EEE8F0E01491112321F1811172
:100700000E949901E12FF0E0EE0FFF1FE458FF4F28
:10071000A591B4918C910823B1F061E08DE00E9425
:10072000C20182E191E00E9421028CE191E00E94ED
:10073000210221143104C1F20E94F6008823A1F2A3
:100740000E940000D1CF60E08DE00E94C201F2E47F
:10075000F0937C0080917A00806480937A0080918D
:100760007A0086FDFCCF80917800A0917900BA2FA5
:10077000A82F2FEF30E00E94B004A30192010E9445
:10078000600469017A01890161E089E00E94F00159
:10079000C114D10409F560E089E00E94C201A701FB
:1007A00096014427552719A27E01F1E2EF0EF11CB4
:1007B000CA01B901A50194010E947F04605DF7019F
:1007C00062937F01211531054105510589F7309765
:1007D00009F4ABCFCF01A7CF0F3F110511F461E0B2
:1007E000DBCFE7EBF0E08491833019F140F4813006
:1007F000B1F08230C9F0003811058CF7CCCF8730CA
:1008000011F1883041F18430B1F78091800080622D
:1008100080938000D0928B00C0928A00C0CF84B5B4
:10082000806884BDC7BCBBCF84B5806284BDC8BCB2
:10083000B6CF80918000806880938000D09289003C
:10084000C0928800ACCF8091B00080688093B000E7
:10085000C092B300A4CF8091B00080628093B000BA
:10086000C092B4009CCFE9E2F1E01382128288EEDC
:1008700093E0A0E0B0E084839583A683B78384E00F
:1008800091E09183808385EC90E09587848784EC68
:1008900090E09787868780EC90E0918B808B81EC4D
:1008A00090E0938B828B82EC90E0958B848B86EC2E
:1008B00090E0978B868B118E128E138E148E089576
:1008C000052E97FB1EF400940E94770457FD07D075
:1008D0000E947F0407FC03D04EF40C9477045095DB
:1008E0004095309521953F4F4F4F5F4F089590951C
:1008F0008095709561957F4F8F4F9F4F0895A1E22E
:100900001A2EAA1BBB1BFD010DC0AA1FBB1FEE1F89
:10091000FF1FA217B307E407F50720F0A21BB30BD4
:10092000E40BF50B661F771F881F991F1A9469F750
:1009300060957095809590959B01AC01BD01CF01AC
:100940000895A29FB001B39FC001A39F700D811DA8
:100950001124911DB29F700D811D1124911D0895C8
:100960000E94A104B7FF0895821B930B0895EE0F18
:0E097000FF1F0590F491E02D0994F894FFCF3D
:10097E00000000002C018C00B9007901EA00C800CB
:10098E00DC004175746F204D6F6465000D0A000028
:00000001FF
