:100000000C9462000C948A000C948A000C948A0070
:100010000C948A000C948A000C948A000C948A0038
:100020000C948A000C948A000C948A000C948A0028
:100030000C948A000C948A000C948A000C948A0018
:100040000C9459030C948A000C9427030C9401031C
:100050000C948A000C948A000C948A000C948A00F8
:100060000C948A000C948A000000000024002700F1
:100070002A0000000000250028002B0000000000DE
:1000800023002600290004040404040404040202DA
:100090000202020203030303030301020408102007
:1000A0004080010204081020010204081020000012
:1000B0000008000201000003040700000000000027
:1000C0000000730511241FBECFEFD8E0DEBFCDBF07
:1000D00011E0A0E0B1E0ECE6F0E102C005900D9285
:1000E000A631B107D9F721E0A6E1B1E001C01D9228
:1000F000A83CB207E1F710E0C2E6D0E004C02197C7
:10010000FE010E942E08C136D107C9F70E94A30341
:100110000C9434080C940000AF92BF92CF92DF92FF
:10012000EF92FF920F931F93CF93DF936C017B01AC
:100130008B01040F151FEB015E01AE18BF08C0173D
:10014000D10759F06991D601ED91FC910190F081B0
:10015000E02DC6010995892B79F7C501DF91CF9173
:100160001F910F91FF90EF90DF90CF90BF90AF90D5
:100170000895FC01538D448D252F30E0842F90E0AD
:10018000821B930B541710F0CF9608950197089592
:10019000FC01918D828D981761F0A28DAE0FBF2F5B
:1001A000B11D5D968C91928D9F5F9F73928F90E0B1
:1001B00008958FEF9FEF0895FC01918D828D981720
:1001C00031F0828DE80FF11D858D90E008958FEF5D
:1001D0009FEF0895FC01918D228D892F90E0805C26
:1001E0009F4F821B91098F73992708958BE291E0AD
:1001F0000E94EA0021E0892B09F420E0822F089573
:1002000080E090E0892B29F00E94F60081110C9487
:1002100000000895FC01A48DA80FB92FB11DA35AA9
:10022000BF4F2C91848D90E001968F739927848F16
:10023000A689B7892C93A089B1898C918370806439
:100240008C93938D848D981306C00288F389E02DDA
:1002500080818F7D80830895EF92FF920F931F938B
:10026000CF93DF93EC0181E0888F9B8D8C8D981369
:100270001AC0E889F989808185FF15C09FB7F89475
:10028000EE89FF896083E889F989808183708064C1
:1002900080839FBF81E090E0DF91CF911F910F910C
:1002A000FF90EF900895F62E0B8D10E00F5F1F4F1B
:1002B0000F731127E02E8C8D8E110CC00FB607FC2A
:1002C000FACFE889F989808185FFF5CFCE010E94B8
:1002D0000A01F1CFEB8DEC0FFD2FF11DE35AFF4F1B
:1002E000F0829FB7F8940B8FEA89FB898081806246
:1002F000CFCFCF93DF93EC01888D8823B9F0AA8903
:10030000BB89E889F9898C9185FD03C0808186FDD0
:100310000DC00FB607FCF7CF8C9185FFF2CF80811F
:1003200085FFEDCFCE010E940A01E9CFDF91CF9189
:100330000895833081F028F4813099F08230A9F05B
:1003400008958730A9F08830C9F08430B1F48091E5
:1003500080008F7D03C0809180008F778093800024
:10036000089584B58F7784BD089584B58F7DFBCFC4
:100370008091B0008F778093B00008958091B00095
:100380008F7DF9CF1F93CF93DF93282F30E0F901B2
:10039000E255FF4F8491F901E656FF4FD491F901E0
:1003A000EA57FF4FC491CC23A9F0162F81110E9468
:1003B0009901EC2FF0E0EE0FFF1FEE58FF4FA591D3
:1003C000B4918FB7F894EC91111108C0D095DE2349
:1003D000DC938FBFDF91CF911F910895DE2BF8CF73
:1003E000CF93DF9390E0FC01E656FF4F24918A57AC
:1003F0009F4FFC0184918823D1F090E0880F991FD2
:10040000FC01E859FF4FA591B491FC01EE58FF4F54
:10041000C591D49161110EC09FB7F8948C91E22FD1
:10042000E0958E238C932881E223E8839FBFDF91A0
:10043000CF9108958FB7F894EC91E22BEC938FBF96
:10044000F6CFCF93DF93EC0161E089E00E94F001E9
:10045000209731F460E089E0DF91CF910C94C201E4
:10046000CF3FD10511F461E0F6CFE7EBF0E0E49186
:10047000E33029F140F4E130B1F0E230D9F0C03896
:10048000D1058CF7E7CFE73021F1E83051F1E430C6
:10049000B1F780918000806280938000D0938B00C0
:1004A000C0938A0004C084B5806884BDC7BDDF9155
:1004B000CF91089584B5806284BDC8BDF8CF809186
:1004C0008000806880938000D0938900C09388006A
:1004D000EECF8091B00080688093B000C093B300ED
:1004E000E6CF8091B00080628093B000C093B400EA
:1004F000DECF8E50806480937C0080917A0080648F
:1005000080937A0080917A0086FDFCCF80917800FC
:100510009091790008953FB7F89480911B019091D4
:100520001C01A0911D01B0911E0126B5A89B05C01C
:100530002F3F19F00196A11DB11D3FBFBA2FA92F62
:10054000982F8827BC01CD01620F711D811D911D5F
:1005500042E0660F771F881F991F4A95D1F70895CB
:10056000FC0101900020E9F73197AF01481B590BBE
:10057000BC018BE291E00C948C008F929F92AF9221
:10058000BF920F931F93CF93DF93CDB7DEB7A197A1
:100590000FB6F894DEBF0FBECDBF19A2423008F4EB
:1005A0004AE08E010F5D1F4F842E912CB12CA12C9F
:1005B000A50194010E94BF05E62FB901CA01EA30E6
:1005C000F4F4E05DD801EE938D01232B242B252B31
:1005D00079F790E080E0109719F0CD010E94B00209
:1005E000A1960FB6F894DEBF0FBECDBFDF91CF91BD
:1005F0001F910F91BF90AF909F908F900895E95CED
:10060000E1CF1F920F920FB60F9211242F933F93B9
:100610004F935F936F937F938F939F93AF93BF930A
:10062000EF93FF938BE291E00E940A01FF91EF911B
:10063000BF91AF919F918F917F916F915F914F91FA
:100640003F912F910F900FBE0F901F9018951F9202
:100650000F920FB60F9211242F938F939F93EF93C6
:10066000FF93E0913B01F0913C018081E0914101D9
:10067000F091420182FD1BC09081809144018F5F07
:100680008F7320914501821741F0E0914401F0E021
:10069000E55DFE4F958F80934401FF91EF919F910F
:1006A0008F912F910F900FBE0F901F901895808102
:1006B000F4CF1F920F920FB60F9211242F933F93F6
:1006C0008F939F93AF93BF938091170190911801DF
:1006D000A0911901B0911A013091160123E0230F66
:1006E0002D3758F50196A11DB11D20931601809359
:1006F000170190931801A0931901B0931A018091EA
:100700001B0190911C01A0911D01B0911E01019649
:10071000A11DB11D80931B0190931C01A0931D018D
:10072000B0931E01BF91AF919F918F913F912F91F7
:100730000F900FBE0F901F90189526E8230F02967A
:10074000A11DB11DD2CF789484B5826084BD84B5DB
:10075000816084BD85B5826085BD85B5816085BDBC
:1007600080916E00816080936E0010928100809174
:1007700081008260809381008091810081608093FC
:100780008100809180008160809380008091B10021
:1007900084608093B1008091B00081608093B0004C
:1007A00080917A00846080937A0080917A008260E0
:1007B00080937A0080917A00816080937A008091A2
:1007C0007A00806880937A001092C100E0913B012A
:1007D000F0913C0182E08083E0913701F091380193
:1007E0001082E0913901F0913A018FEC80831092F0
:1007F0004301E0913F01F091400186E08083E09168
:100800003D01F0913E01808180618083E0913D0156
:10081000F0913E01808188608083E0913D01F091FC
:100820003E01808180688083E0913D01F0913E012E
:1008300080818F7D808360E088E00E94F00161E02C
:100840008DE00E94F00161E089E00E94F00190E0FB
:1008500080E00E94210232EA232E30E0332E0EE89F
:1008600010E0C0E0D0E0E6EBF0E08491F101F4901C
:10087000F801E490EE2009F43BC081110E94990137
:10088000EE2DF0E0EE0FFF1FE458FF4FA591B4915D
:100890008C91F82269F160E08DE00E94C20180E154
:1008A0000E9479022EEF30E0DC010E9427082FEF32
:1008B00033E040E050E00E94A00569017A01C901DF
:1008C0000E942102C701B601882799274AE00E94A9
:1008D000BD0282E191E00E94B002209709F4C3CFEB
:1008E0000E94F600882309F4BECF0E940000BBCF0F
:1008F00061E08DE00E94C2018FE00E9479026C01EC
:100900008EE00E9479027C01B601DD0C880B990B08
:100910000E94050720E030E04AE754E40E94BA074D
:1009200020E030EC4FE754E40E94620620E030E023
:10093000A9010E94F1054B015C01B701FF0C880B76
:10094000990B0E94050720E030E04AE754E40E943A
:10095000BA0720E030EC4FE754E40E94620620E042
:1009600030E0A9010E94F1059B01AC01C501B40171
:100970000E94F0054B015C01409027015090280136
:100980006090290170902A0120E030E0A901609177
:1009900023017091240180912501909126010E94EC
:1009A000BA076B017C0126ED32E74EE85FE3C50133
:1009B000B4010E94BA07A30192010E94F0059B01B5
:1009C000AC01C701B6010E94F1052AE534E64FE00B
:1009D00050E40E94BA0720911F01309120014091FC
:1009E0002101509122010E94F1056B017C0120E060
:1009F00030E04AE754E40E94B50718160CF46CC0C6
:100A000020E030E0A901C701B6010E945D0687FF22
:100A100003C0C12CD12C76014092230150922401B5
:100A20006092250170922601809227019092280100
:100A3000A0922901B0922A01C0921F01D0922001F8
:100A4000E0922101F092220120E030E04EE753E4F1
:100A5000C701B6010E94BA0720E030E04AE754E43B
:100A60000E94620620E030E0A9010E94F1050E9488
:100A7000D4066B01CB010E942102B60190E080E018
:100A80004AE00E94BD0282E191E00E94B0020E9411
:100A90008B024B015C018AE0C82ED12CE12CF12C99
:100AA0000E948B02681979098A099B09683E734084
:100AB00081059105A8F3F1E0CF1AD108E108F1080A
:100AC00028EE820E23E0921EA11CB11CC114D10499
:100AD000E104F10429F701CFC12CD12C9AE7E92ECA
:100AE00094E4F92E99CFEBE2F1E01382128288EEC2
:100AF00093E0A0E0B0E084839583A683B78384E08D
:100B000091E09183808385EC90E09587848784ECE5
:100B100090E09787868780EC90E0918B808B81ECCA
:100B200090E0938B828B82EC90E0958B848B86ECAB
:100B300090E0978B868B118E128E138E148E0895F3
:100B4000052E97FB1EF400940E94B70557FD07D0B1
:100B50000E94BF0507FC03D04EF40C94B7055095D6
:100B60004095309521953F4F4F4F5F4F0895909599
:100B70008095709561957F4F8F4F9F4F0895A1E2AB
:100B80001A2EAA1BBB1BFD010DC0AA1FBB1FEE1F07
:100B9000FF1FA217B307E407F50720F0A21BB30B52
:100BA000E40BF50B661F771F881F991F1A9469F7CE
:100BB00060957095809590959B01AC01BD01CF012A
:100BC0000895A29FB001B39FC001A39F700D811D26
:100BD0001124911DB29F700D811D1124911D089546
:100BE0005058BB27AA270E9408060C947B070E9436
:100BF0006D0738F00E94740720F039F49F3F19F414
:100C000026F40C946A070EF4E095E7FB0C94640755
:100C1000E92F0E948C0758F3BA17620773078407FD
:100C2000950720F079F4A6F50C94AE070EF4E09544
:100C30000B2EBA2FA02D0B01B90190010C01CA0196
:100C4000A0011124FF27591B99F0593F50F4503E41
:100C500068F11A16F040A22F232F342F4427585F33
:100C6000F3CF469537952795A795F0405395C9F74B
:100C70007EF41F16BA0B620B730B840BBAF0915003
:100C8000A1F0FF0FBB1F661F771F881FC2F70EC0A2
:100C9000BA0F621F731F841F48F487957795679575
:100CA000B795F7959E3F08F0B0CF9395880F08F061
:100CB0009927EE0F9795879508950E94400708F4AD
:100CC00081E008950E9476060C947B070E947407C9
:100CD00058F00E946D0740F029F45F3F29F00C9412
:100CE000640751110C94AF070C946A070E948C079B
:100CF00068F39923B1F3552391F3951B550BBB274B
:100D0000AA2762177307840738F09F5F5F4F220F8F
:100D1000331F441FAA1FA9F335D00E2E3AF0E0E886
:100D200032D091505040E695001CCAF72BD0FE2FD0
:100D300029D0660F771F881FBB1F26173707480764
:100D4000AB07B0E809F0BB0B802DBF01FF2793581C
:100D50005F4F3AF09E3F510578F00C9464070C9475
:100D6000AF075F3FE4F3983ED4F386957795679598
:100D7000B795F7959F5FC9F7880F911D9695879551
:100D800097F90895E1E0660F771F881FBB1F621770
:100D900073078407BA0720F0621B730B840BBA0B2E
:100DA000EE1F88F7E09508950E94940788F09F57FA
:100DB00098F0B92F9927B751B0F0E1F0660F771F7F
:100DC000881F991F1AF0BA95C9F714C0B13091F075
:100DD0000E94AE07B1E008950C94AE07672F782FFC
:100DE0008827B85F39F0B93FCCF38695779567953A
:100DF000B395D9F73EF490958095709561957F4FA6
:100E00008F4F9F4F0895E89409C097FB3EF490954B
:100E10008095709561957F4F8F4F9F4F9923A9F0D3
:100E2000F92F96E9BB279395F69587957795679562
:100E3000B795F111F8CFFAF4BB0F11F460FF1BC0A6
:100E40006F5F7F4F8F4F9F4F16C0882311F096E939
:100E500011C0772321F09EE8872F762F05C06623E7
:100E600071F096E8862F70E060E02AF09A95660FA0
:100E7000771F881FDAF7880F9695879597F9089559
:100E8000990F0008550FAA0BE0E8FEEF161617069B
:100E9000E807F907C0F012161306E407F50798F003
:100EA000621B730B840B950B39F40A2661F0232B1C
:100EB000242B252B21F408950A2609F4A140A69598
:100EC0008FEF811D811D089597F99F6780E870E07D
:100ED00060E008959FEF80EC089500240A941616B0
:100EE000170618060906089500240A941216130618
:100EF000140605060895092E0394000C11F48823A6
:100F000052F0BB0F40F4BF2B11F460FF04C06F5FC1
:100F10007F4F8F4F9F4F089557FD9058440F551F97
:100F200059F05F3F71F04795880F97FB991F61F06B
:100F30009F3F79F087950895121613061406551FE2
:100F4000F2CF4695F1DF08C0161617061806991F4E
:100F5000F1CF86957105610508940895E894BB2743
:100F600066277727CB0197F908950E94400708F478
:100F70008FEF08950E94CD070C947B070E946D07A8
:100F800038F00E94740720F0952311F00C94640748
:100F90000C946A0711240C94AF070E948C0770F31D
:100FA000959FC1F3950F50E0551F629FF001729F0E
:100FB000BB27F00DB11D639FAA27F00DB11DAA1F1D
:100FC000649F6627B00DA11D661F829F2227B00D6A
:100FD000A11D621F739FB00DA11D621F839FA00DF5
:100FE000611D221F749F3327A00D611D231F849F45
:100FF000600D211D822F762F6A2F11249F5750409C
:101000009AF0F1F088234AF0EE0FFF1FBB1F661F16
:10101000771F881F91505040A9F79E3F510580F0DF
:101020000C9464070C94AF075F3FE4F3983ED4F34D
:10103000869577956795B795F795E7959F5FC1F783
:10104000FE2B880F911D9695879597F908950E941C
:10105000E105B7FF0895821B930B0895EE0FFF1F64
:0C1060000590F491E02D0994F894FFCF66
:10106C00000000002C018C00B9007901EA00C800D6
:06107C00DC000D0A00007B
:00000001FF
